{
  "contractName": "assetTracker",
  "abi": [
    {
      "constant": false,
      "inputs": [
        {
          "name": "userID",
          "type": "uint256"
        },
        {
          "name": "Assetid",
          "type": "uint256"
        },
        {
          "name": "activityDate",
          "type": "uint256"
        },
        {
          "name": "presentAct",
          "type": "bytes32"
        }
      ],
      "name": "setAssetData",
      "outputs": [
        {
          "name": "",
          "type": "bool"
        }
      ],
      "payable": false,
      "stateMutability": "nonpayable",
      "type": "function"
    },
    {
      "constant": true,
      "inputs": [
        {
          "name": "Assetid",
          "type": "uint256"
        }
      ],
      "name": "getAssetData",
      "outputs": [
        {
          "name": "owner",
          "type": "uint256"
        },
        {
          "name": "assetHistory",
          "type": "uint256[]"
        },
        {
          "name": "activityHistory",
          "type": "bytes32[]"
        }
      ],
      "payable": false,
      "stateMutability": "view",
      "type": "function"
    },
    {
      "constant": false,
      "inputs": [
        {
          "name": "newOwnerId",
          "type": "uint256"
        },
        {
          "name": "Assetid",
          "type": "uint256"
        },
        {
          "name": "activityDate",
          "type": "uint256"
        },
        {
          "name": "presentAct",
          "type": "bytes32"
        }
      ],
      "name": "changeOwnership",
      "outputs": [
        {
          "name": "",
          "type": "bool"
        }
      ],
      "payable": false,
      "stateMutability": "nonpayable",
      "type": "function"
    },
    {
      "constant": false,
      "inputs": [
        {
          "name": "Assetid",
          "type": "uint256"
        },
        {
          "name": "activityName",
          "type": "bytes32"
        },
        {
          "name": "timestamp",
          "type": "uint256"
        }
      ],
      "name": "addActivity",
      "outputs": [],
      "payable": false,
      "stateMutability": "nonpayable",
      "type": "function"
    }
  ],
  "bytecode": "0x608060405234801561001057600080fd5b5061057e806100206000396000f300608060405260043610610062576000357c0100000000000000000000000000000000000000000000000000000000900463ffffffff168063427dfa5d146100675780634836001b146100ce5780637d1108f514610113578063b4a2a4ca146101e4575b600080fd5b34801561007357600080fd5b506100b4600480360381019080803590602001909291908035906020019092919080359060200190929190803560001916906020019092919050505061024b565b604051808215151515815260200191505060405180910390f35b3480156100da57600080fd5b50610111600480360381019080803590602001909291908035600019169060200190929190803590602001909291905050506102f7565b005b34801561011f57600080fd5b5061013e60048036038101908080359060200190929190505050610380565b604051808481526020018060200180602001838103835285818151815260200191508051906020019060200280838360005b8381101561018b578082015181840152602081019050610170565b50505050905001838103825284818151815260200191508051906020019060200280838360005b838110156101cd5780820151818401526020810190506101b2565b505050509050019550505050505060405180910390f35b3480156101f057600080fd5b506102316004803603810190808035906020019092919080359060200190929190803590602001909291908035600019169060200190929190505050610474565b604051808215151515815260200191505060405180910390f35b6000846000808681526020019081526020016000206000018190555060008085815260200190815260200160002060020183908060018154018082558091505090600182039060005260206000200160009091929091909150555060008085815260200190815260200160002060030182908060018154018082558091505090600182039060005260206000200160009091929091909150906000191690555060019050949350505050565b600080848152602001908152602001600020600201819080600181540180825580915050906001820390600052602060002001600090919290919091505550600080848152602001908152602001600020600301829080600181540180825580915050906001820390600052602060002001600090919290919091509060001916905550505050565b60006060806000808581526020019081526020016000206000015492506000808581526020019081526020016000206002018054806020026020016040519081016040528092919081815260200182805480156103fc57602002820191906000526020600020905b8154815260200190600101908083116103e8575b5050505050915060008085815260200190815260200160002060030180548060200260200160405190810160405280929190818152602001828054801561046657602002820191906000526020600020905b8154600019168152602001906001019080831161044e575b505050505090509193909250565b600084600080868152602001908152602001600020600001819055508360008086815260200190815260200160002060010181905550600080858152602001908152602001600020600201839080600181540180825580915050906001820390600052602060002001600090919290919091505550600080858152602001908152602001600020600301829080600181540180825580915050906001820390600052602060002001600090919290919091509060001916905550846001600086815260200190815260200160002081905550600190509493505050505600a165627a7a723058206d2991e5365761eba532185181c1eac1fd5427cb9b20f310c48e75ebe85347720029",
  "source": "pragma solidity ^0.4.22;\n\n\ncontract assetTracker {\n  // constructor() {\n  // }\n  \nstruct activity {\n  bytes32 activityName;\n  uint timestamp;\n}\n\n  struct asset{\n    uint ownerID;\n    uint AssetId;\n    uint[] history;\n    bytes32[] activityHistory;\n  }\n\n  \n  mapping(uint=>asset) idToassetMapping;\n  mapping(uint=>uint) ownerOfAsset;\n  //modifier ownerOnly{if(msg.sender == idToassetMapping[Assetid].owner)_;else{ revert();}}\n  function setAssetData(uint userID,uint Assetid,uint activityDate,bytes32 presentAct) public returns(bool){\n\n    idToassetMapping[Assetid].ownerID = userID;\n    idToassetMapping[Assetid].AssetId = Assetid;\n    idToassetMapping[Assetid].history.push(activityDate);\n    idToassetMapping[Assetid].activityHistory.push(presentAct);\n    ownerOfAsset[Assetid] = userID;\n    return true;\n}\n\nfunction getAssetData(uint Assetid) public view returns(uint owner,uint[] assetHistory,bytes32[] activityHistory){\n  owner =  idToassetMapping[Assetid].ownerID;\n  assetHistory =  idToassetMapping[Assetid].history;\n  activityHistory =  idToassetMapping[Assetid].activityHistory;\n}\n\nfunction changeOwnership(uint newOwnerId,uint Assetid,uint activityDate,bytes32 presentAct) public returns(bool){\n  idToassetMapping[Assetid].ownerID = newOwnerId;\n  idToassetMapping[Assetid].history.push(activityDate);\n  idToassetMapping[Assetid].activityHistory.push(presentAct);\n  return true;\n}\n\nfunction addActivity(uint Assetid,bytes32 activityName,uint timestamp) public{\n   idToassetMapping[Assetid].history.push(timestamp);\n   idToassetMapping[Assetid].activityHistory.push(activityName);\n}\n\n\n}\n",
  "sourcePath": "D:\\hackday\\blockchain\\contracts\\assetTracker.sol",
  "compiler": {
    "name": "solc",
    "version": "0.4.24+commit.e67f0147.Emscripten.clang"
  },
  "schemaVersion": "2.0.1",
  "updatedAt": "2018-12-08T08:51:59.178Z"
}